:020000040800F2
:1000000000500020451200089B120008A7120008AB
:10001000AD120008B3120008B91200080000000079
:10002000000000000000000000000000BF120008F7
:10003000CB12000800000000D7120008E5120008EB
:1000400099120008991200089912000899120008E4
:1000500099120008991200080113000839130008CA
:10006000451300085113000899120008991200085E
:10007000991200085D1300089912000899120008EF
:1000800099120008991200089912000899120008A4
:100090009912000899120008991200089912000894
:1000A0009912000899120008991200089912000884
:1000B0009912000899120008991200089912000874
:1000C0009912000899120008991200089912000864
:1000D000991200089D13000899120008991200084F
:1000E00099120008991200089912000800000000F7
:1000F0000000000000000000000000000000000000
:0C01000000000000000000005FF808F1A3
:1001100010B5054C237833B9044B13B10448AFF341
:1001200000800123237010BD140000200000000097
:100130008C16000808B5034B1BB103490348AFF305
:10014000008008BD00000000180000208C16000888
:1001500081F0004102E000BF83F0004330B54FEA78
:1001600041044FEA430594EA050F08BF90EA020FE5
:100170001FBF54EA000C55EA020C7FEA645C7FEA78
:10018000655C00F0E2804FEA5454D4EB5555B8BF9B
:100190006D420CDD2C4480EA020281EA030382EA0C
:1001A000000083EA010180EA020281EA0303362D9E
:1001B00088BF30BD11F0004F4FEA01314FF4801C71
:1001C0004CEA113102D0404261EB410113F0004F83
:1001D0004FEA03334CEA133302D0524263EB43033A
:1001E00094EA050F00F0A780A4F10104D5F1200ED8
:1001F0000DDB02FA0EFC22FA05F2801841F1000133
:1002000003FA0EF2801843FA05F359410EE0A5F106
:1002100020050EF1200E012A03FA0EFC28BF4CF037
:10022000020C43FA05F3C01851EBE37101F00045ED
:1002300007D54FF0000EDCF1000C7EEB00006EEBFA
:100240000101B1F5801F1BD3B1F5001F0CD3490884
:100250005FEA30004FEA3C0C04F101044FEA4452DB
:1002600012F5800F80F09A80BCF1004F08BF5FEA62
:10027000500C50F1000041EB045141EA050130BD42
:100280005FEA4C0C404141EB010111F4801FA4F1E5
:100290000104E9D191F0000F04BF01460020B1FA3A
:1002A00081F308BF2033A3F10B03B3F120020CDA72
:1002B0000C3208DD02F1140CC2F10C0201FA0CF050
:1002C00021FA02F10CE002F11402D8BFC2F1200CB5
:1002D00001FA02F120FA0CFCDCBF41EA0C0190406B
:1002E000E41AA2BF01EB0451294330BD6FEA0404B4
:1002F0001F3C1CDA0C340EDC04F11404C4F120029F
:1003000020FA04F001FA02F340EA030021FA04F3B0
:1003100045EA030130BDC4F10C04C4F1200220FA07
:1003200002F001FA04F340EA0300294630BD21FA45
:1003300004F0294630BD94F0000F83F4801306BF0B
:1003400081F480110134013D4EE77FEA645C18BFFF
:100350007FEA655C29D094EA050F08BF90EA020F96
:1003600005D054EA000C04BF1946104630BD91EA8E
:10037000030F1EBF0021002030BD5FEA545C05D191
:100380004000494128BF41F0004130BD14F58004D0
:100390003CBF01F5801130BD01F0004545F0FE4144
:1003A00041F470014FF0000030BD7FEA645C1ABF79
:1003B000194610467FEA655C1CBF0B46024650EAB0
:1003C000013406BF52EA033591EA030F41F40021DC
:1003D00030BD00BF90F0000F04BF0021704730B562
:1003E0004FF4806404F132044FF000054FF0000137
:1003F00050E700BF90F0000F04BF0021704730B5F8
:100400004FF4806404F1320410F0004548BF4042CC
:100410004FF000013EE700BF42004FEAE2014FEA21
:1004200031014FEA02701FBF12F07F4393F07F4FFC
:1004300081F06051704792F0000F14BF93F07F4F2E
:10044000704730B54FF4607401F0004521F0004171
:1004500020E700BF50EA010208BF704730B54FF0F7
:1004600000050AE050EA010208BF704730B511F0FC
:10047000004502D5404261EB41014FF4806404F134
:1004800032045FEA915C3FF4DCAE4FF003025FEAB6
:10049000DC0C18BF03325FEADC0C18BF033202EB3E
:1004A000DC02C2F1200300FA03FC20FA02F001FA98
:1004B00003FE40EA0E0021FA02F11444C1E600BF37
:1004C00070B54FF0FF0C4CF4E06C1CEA11541DBFEA
:1004D0001CEA135594EA0C0F95EA0C0F00F0DEF8B5
:1004E0002C4481EA030621EA4C5123EA4C5350EA9A
:1004F000013518BF52EA033541F4801143F48013EB
:1005000038D0A0FB02CE4FF00005E1FB02E506F07B
:100510000042E0FB03E54FF00006E1FB03569CF0D0
:10052000000F18BF4EF0010EA4F1FF04B6F5007FD6
:1005300064F5407404D25FEA4E0E6D4146EB060648
:1005400042EAC62141EA55514FEAC52040EA5E50D1
:100550004FEACE2EB4F1FD0C88BFBCF5E06F1ED87B
:10056000BEF1004F08BF5FEA500E50F1000041EBB2
:10057000045170BD06F0004646EA010140EA02005F
:1005800081EA0301B4EB5C04C2BFD4EB0C0541EA81
:10059000045170BD41F480114FF0000E013C00F396
:1005A000AB8014F1360FDEBF002001F0004170BDBA
:1005B000C4F10004203C35DA0C341BDC04F11404D3
:1005C000C4F1200500FA05F320FA04F001FA05F25F
:1005D00040EA020001F0004221F0004110EBD3702C
:1005E00021FA04F642EB06015EEA430E08BF20EA58
:1005F000D37070BDC4F10C04C4F1200500FA04F3FB
:1006000020FA05F001FA04F240EA020001F000418C
:1006100010EBD37041F100015EEA430E08BF20EAFF
:10062000D37070BDC4F1200500FA05F24EEA020E47
:1006300020FA04F301FA05F243EA020321FA04F076
:1006400001F0004121FA04F220EA020000EBD3702D
:100650005EEA430E08BF20EAD37070BD94F0000F2D
:100660000FD101F00046400041EB010111F4801F61
:1006700008BF013CF7D041EA060195F0000F18BF12
:10068000704703F00046520043EB030313F4801F4E
:1006900008BF013DF7D043EA0603704794EA0C0F08
:1006A0000CEA135518BF95EA0C0F0CD050EA41061E
:1006B00018BF52EA4306D1D181EA030101F000419B
:1006C0004FF0000070BD50EA410606BF10461946C3
:1006D00052EA430619D094EA0C0F02D150EA0136CF
:1006E00013D195EA0C0F05D152EA03361CBF104610
:1006F00019460AD181EA030101F0004141F0FE41AF
:1007000041F470014FF0000070BD41F0FE4141F432
:10071000780170BD70B54FF0FF0C4CF4E06C1CEA32
:1007200011541DBF1CEA135594EA0C0F95EA0C0FE7
:1007300000F0A7F8A4EB050481EA030E52EA0335A2
:100740004FEA013100F088804FEA03334FF08055C3
:1007500045EA131343EA12634FEA022245EA1115F0
:1007600045EA10654FEA00260EF000419D4208BFA1
:10077000964244F1FD0404F5407402D25B084FEA4E
:100780003202B61A65EB03055B084FEA32024FF4FA
:1007900080104FF4002CB6EB020E75EB030E22BF57
:1007A000B61A754640EA0C005B084FEA3202B6EB17
:1007B000020E75EB030E22BFB61A754640EA5C00C6
:1007C0005B084FEA3202B6EB020E75EB030E22BF56
:1007D000B61A754640EA9C005B084FEA3202B6EB57
:1007E000020E75EB030E22BFB61A754640EADC0016
:1007F00055EA060E18D04FEA051545EA16754FEA78
:1008000006164FEAC30343EA52734FEAC2025FEA95
:100810001C1CC0D111F4801F0BD141EA00014FF024
:1008200000004FF0004CB6E711F4801F04BF0143F5
:100830000020B4F1FD0C88BFBCF5E06F3FF6AFAE11
:10084000B5EB030C04BFB6EB020C5FEA500C50F1A1
:10085000000041EB045170BD0EF0004E4EEA113124
:1008600014EB5C04C2BFD4EB0C0541EA045170BD2B
:1008700041F480114FF0000E013C90E645EA060E6F
:100880008DE60CEA135594EA0C0F08BF95EA0C0F9D
:100890003FF43BAF94EA0C0F0AD150EA01347FF4E5
:1008A00034AF95EA0C0F7FF425AF104619462CE7BC
:1008B00095EA0C0F06D152EA03353FF4FDAE10461F
:1008C000194622E750EA410618BF52EA43067FF470
:1008D000C5AE50EA41047FF40DAF52EA43057FF400
:1008E000EBAE12E74A0011D212F5001211D20DD56B
:1008F0006FF47873B3EB62520ED44FEAC12343F026
:10090000004343EA505323FA02F070474FF00000CF
:10091000704750EA013002D14FF0FF3070474FF07E
:100920000000704780B483B000AF03463960FB71AC
:1009300097F90730002B0BDA0D49FB7903F00F0311
:10094000043B3A68D2B21201D2B20B441A7609E0E3
:10095000084997F907303A68D2B21201D2B20B4473
:1009600083F8002300BF0C37BD4680BC704700BF32
:1009700000ED00E000E100E080B582B000AF7860FB
:100980007B68B3F1807F01D3012311E00A4A7B68C1
:1009900023F07F43013B53600F214FF0FF30FFF7FF
:1009A000C1FF054B00229A60034B07221A60002307
:1009B00018460837BD4680BD10E000E080B485B021
:1009C00000AF7860074B1B68FB6000BF054B1A68DF
:1009D000FB68D21A7B689A42F8D300BF1437BD4631
:1009E00080BC70473000002080B582B000AF00F0BE
:1009F0000FFD0E4B1B680E4A934200D0FEE70B4BD7
:100A00001B680C4AA2FB03239B091846FFF7B4FF9F
:100A100078607B68002B00D0FEE700214FF0FF30AC
:100A2000FFF780FF00BF0837BD4680BD00000020F3
:100A300000127A00D34D621080B400AF104A104B00
:100A40009B6943F0100393610E4A0E4B5B6823F4DD
:100A5000401353600B4A0B4B5B6843F40013536025
:100A6000084A084B5B6823F440035360054A054B72
:100A7000DB6843F40053D36000BFBD4680BC7047C1
:100A8000001002400010014080B400AF194A194B19
:100A90009B6943F004039361174A174B5B6823F08B
:100AA00030035360144A144B5B6843F020035360D7
:100AB000114A114B5B6823F0C00353600E4A0E4B82
:100AC0005B6843F0800353600B4A0B4B5B6823F475
:100AD00040635360084A084B5B6843F4806353608B
:100AE000054A054B5B6823F44073536000BFBD4665
:100AF00080BC7047001002400008014080B400AF85
:100B0000194A194B9B6943F008039361174A174B25
:100B10005B6823F440735360144A144B5B6843F4DE
:100B200000735360114A114B5B6823F440635360B8
:100B30000E4A0E4B5B6843F4006353600B4A0B4B49
:100B40005B6823F440435360084A084B5B6843F4F6
:100B500080435360054A054B5B6823F44053536060
:100B600000BFBD4680BC704700100240000C014031
:100B700080B485B000AF78607B6803F00703FB604A
:100B80000C4BDB68BB60BA684FF6FF031340BB60D9
:100B9000FB681A02BB68134343F0BF6343F400339E
:100BA000BB60044ABB68D36000BF1437BD4680BC3D
:100BB000704700BF00ED00E080B483B000AF034693
:100BC000FB71084997F907305B09FA7902F01F02B7
:100BD000012000FA02F241F8232000BF0C37BD4685
:100BE00080BC704700E100E080B483B000AF0346F2
:100BF0003960FB7197F90730002B0BDA0D49FB794F
:100C000003F00F03043B3A68D2B21201D2B20B4494
:100C10001A7609E0084997F907303A68D2B212010A
:100C2000D2B20B4483F8002300BF0C37BD4680BC12
:100C3000704700BF00ED00E000E100E080B500AFCC
:100C40000320FFF795FF01210620FFF7CDFF0221CA
:100C50000D20FFF7C9FF01212520FFF7C5FF062062
:100C6000FFF7AAFF0D20FFF7A7FF2520FFF7A4FF3E
:100C700000BF80BD80B487B000AFF860B960134694
:100C8000FB710123FB75FB68002B18D0BB68002BA0
:100C900015D000233B610EE03B69FA6813441A78D3
:100CA0003B69B9680B441B789A4201D00023FB755D
:100CB0003B6901333B61FA793B699A42ECDCFB7D8D
:100CC00018461C37BD4680BC7047000080B400AF9A
:100CD000134B1B889BB203F00103012B0CD100BF07
:100CE0000F4B1B889BB203F02003202BF8D10C4B39
:100CF0009B880C4B02221A70094B1B889BB203F095
:100D00002003202B08D1064B9B889BB2DAB2064BFE
:100D10001A70044B01221A7000BFBD4680BC704798
:100D200000380140350000203600002080B483B038
:100D300000AF214B1B78002B27D1204B1B68002BC9
:100D400035D000237B600BE01D4A7B681344197883
:100D50001C4A7B6813440A461A707B6801337B6027
:100D6000164B1B687A689A42EEDB144B1B68154AD7
:100D70000021D154114B1B68DBB20133DAB2124BA4
:100D80001A700E4B00221A6011E00C4B1B68C82B26
:100D900002D10A4B00221A60084B1B68064A1178E0
:100DA000074AD154054B1B680133044A136000BF46
:100DB0000C37BD4680BC704736000020040100207F
:100DC00008010020380000200101002080B582B019
:100DD00000AF786039603B68002B14D008E03B68B6
:100DE0005A1C3A601B789BB21946786800F00FF8DD
:100DF0003B681B78002BF2D13B681B789BB21946ED
:100E0000786800F004F800BF0837BD4680BD80B4A4
:100E100083B000AF78600B467B8000BF7B681B8887
:100E20009BB203F08003002BF8D07B687A889A800D
:100E300000BF0C37BD4680BC7047000000000000BA
:100E400090B589B000AFF8600B467A60FB724FF046
:100E500000034FF00004C7E90634FB68544A93428C
:100E600002D1FFF711FE05E0FB68524A934201D11F
:100E7000FFF744FEFB684E4A934206D14E4A4E4B62
:100E80009B6943F48043936109E0FB68494A9342BC
:100E900005D1494A484BDB6943F48023D361FB68A1
:100EA0009B899BB243F480539AB2FB689A81FB689A
:100EB0001B8A9BB223F440539AB2FB681A82FB68E8
:100EC0009B899BB243F400739AB2FB689A81384ABB
:100ED000374B9B899BB243F480639BB293817868C4
:100EE000FFF778FA30A3D3E90023FFF713FC03469A
:100EF0000C46C7E90634D7E90601FFF7F3FC0346C1
:100F00009BB21846FFF776FA03460C461A4623466C
:100F1000D7E90601FFF720F903460C46184621469B
:100F20004FF00002254BFFF7CBFA03460C4618465C
:100F3000214600F065FB03460C4618462146FFF7A4
:100F4000D1FC0346FB75FB7D0F2B0CD90023FB75F1
:100F50004FF000021A4BD7E90601FFF7FFF80346EE
:100F60000C46C7E90634D7E90601FFF7BBFC034688
:100F70009BB21B019AB2FB7D9BB213449AB2FB68F1
:100F80001A81FB7A012B07D1FB689B8A9BB243F045
:100F900040039AB2FB689A8200BF00BF00BF00BF47
:100FA00000BF2437BD4690BD0000000000203C413A
:100FB000003801400048004000100240000030406E
:100FC0000000F03F80B483B000AF78607B689B89FD
:100FD0009BB243F400539AB27B689A817B689B89E9
:100FE0009BB243F008039AB27B689A817B689B8925
:100FF0009BB243F004039AB27B689A817B689B8919
:101000009BB243F020039AB27B689A817B689B89EC
:101010009BB243F480739AB27B689A8100BF0C370D
:10102000BD4680BC7047000080B582B000AF684B01
:101030001B78012B0FD0022B02D0002B11D011E016
:1010400064496548FFF7C2FE644B00221A70604B8A
:1010500000221A7006E0FFF769FE5D4B00221A704D
:1010600000E000BF5D4B1B78042B00F2A68001A2BC
:1010700052F823F08910000899100008B1100008F8
:10108000C1100008F710000855495348FFF79EFEAD
:10109000524B01221A7097E0524B1B78002B00F044
:1010A0008E80504B00221A704C4B02221A7086E040
:1010B0004D494948FFF78AFE484B03221A7083E0E6
:1010C000484B1B78002B7CD048494348FFF77EFEF5
:1010D00047494148FFF77AFE46493F48FFF776FE09
:1010E00045493D48FFF772FE3E4B00221A703B4BCC
:1010F00004221A7065E03B4B1B78002B63D0394B00
:1011000000221A7000233B710023FB710023BB7186
:1011100000237B71122236493848FFF7ABFD0346A6
:101120003B713B79012B04D135492B48FFF74EFE2B
:1011300006E010222E493348FFF79CFD0346FB7161
:10114000FB79012B04D12E492348FFF73FFE09E02C
:101150003B79002B06D1132225492B48FFF78AFD46
:101160000346BB71BB79012B04D125491A48FFF70F
:101170002DFE0CE0FB79002B09D13B79002B06D129
:1011800011221B492148FFF775FD03467B717B79CE
:10119000012B04D11A491048FFF718FE13E0BB7960
:1011A000002B10D1FB79002B0DD13B79002B0AD1FC
:1011B00017490948FFF70AFE05E000BF04E000BF39
:1011C00002E000BF00E000BF00BF0837BD4680BDA1
:1011D000350000207C170008003801403400002052
:1011E000A416000801010020B4160008C816000863
:1011F00038000020CC160008E41600081817000874
:10120000641700082C1700083C1700085017000846
:101210006C17000880B500AFFFF7E6FBFFF70CFC8A
:10122000FFF70CFD054A00210548FFF709FE62B6ED
:101230000348FFF7C7FEFFF7F7FEFCE700127A004E
:1012400000380140DFF838D072B6002103E00D4BC2
:101250005B58435004310C480C4B42189A42F6D369
:101260000B4A02E0002342F8043B0A4B9A42F9D3AE
:1012700000F09AF800F0A0F9FFF7CCFF70470000EB
:1012800000500020941700080000002014000020E7
:1012900014000020D0010020FEE780B400AF00BFA2
:1012A000BD4680BC704780B400AFFEE780B400AF9D
:1012B000FEE780B400AFFEE780B400AFFEE780B485
:1012C00000AF00BFBD4680BC704780B400AF00BF18
:1012D000BD4680BC704780B400AF00BFBD4680BC37
:1012E0007047000080B400AF044B1B680133034A11
:1012F000136000BFBD4680BC704700BF30000020B7
:1013000080B500AF0A4B00221A604FF47A70FFF7E5
:1013100055FB074B01221A604FF47A70FFF74EFB22
:10132000044A044B5B6943F00103536100BF80BD75
:10133000B40122420004014080B400AF00BFBD46AA
:1013400080BC704780B400AF00BFBD4680BC704712
:1013500080B400AF00BFBD4680BC704780B400AF12
:101360000C4B1B6803F40073B3F5007F08D10A4BE4
:1013700001221A60074A074B5B6843F4007353600D
:10138000044A044B5B6843F48073536000BFBD465E
:1013900080BC704700000240B401224280B500AF1B
:1013A000FFF794FC00BF80BD80B500AF154A154B18
:1013B0001B6843F0010313601249124B5A68124B29
:1013C00013404B600F4A0F4B1B6823F0847323F4C8
:1013D000803313600B4A0B4B1B6823F4802313608C
:1013E000084A084B5B6823F4FE035360054B4FF437
:1013F0001F029A6000F078F8044B4FF000629A6088
:1014000000BF80BD001002400000FFF800ED00E0CA
:1014100080B485B000AF0023FB600023BB600023D5
:101420007B602C4B5B6803F00C03FB60FB68042BB8
:1014300007D0082B09D0002B33D1274B274A1A603D
:1014400033E0254B254A1A602FE0224B5B6803F4FA
:101450007013BB601F4B5B6803F480337B60BB6819
:101460009B0C0233BB607B68002B06D1BB681C4A17
:1014700002FB03F3184A136017E0164B5B6803F492
:101480000033002B06D0BB68154A02FB03F3124A57
:1014900013600AE0BB68114A02FB03F30E4A1360B3
:1014A00003E00D4B0D4A1A6000BF0A4B5B681B0935
:1014B00003F00F030B4AD35CDBB2FB60064B1A68E8
:1014C000FB6822FA03F3044A136000BF1437BD46D9
:1014D00080BC7047001002400000002000127A001B
:1014E00000093D000400002080B500AF00F002F8C4
:1014F00000BF80BD80B483B000AF00237B600023B9
:101500003B602B4A2A4B1B6843F480331360284B03
:101510001B6803F400333B607B6801337B603B68EE
:10152000002B03D17B68B3F5A06FF0D1204B1B6873
:1015300003F40033002B02D001233B6001E00023C1
:101540003B603B68012B2ED11A4A1A4B1B6843F0B3
:1015500010031360174A174B1B6823F00303136033
:10156000144A144B1B681360114A114B5B6853609B
:101570000F4A0F4B5B6853600D4A0D4B5B6853601D
:101580000B4A0B4B5B6823F003035360084A084B7C
:101590005B6843F00103536000BF054B5B6803F0D9
:1015A0000C03042BF9D100BF0C37BD4680BC70473B
:1015B000001002400020024070B500250C4E0D4C7A
:1015C000A41BA410A54209D100F060F800250A4E22
:1015D0000A4CA41BA410A54205D170BD56F82530B5
:1015E00098470135EEE756F8253098470135F2E780
:1015F0008C1700088C1700088C170008901700083B
:10160000F8B5C1F30A57A7F2FF34132C06460D466E
:101610000B468E4617DC002C09DA013401F000433A
:1016200003D143F07F5343F44013002229E01649CD
:1016300021410D4200D188B14FF40023234173446E
:1016400023EA0103F1E7332C0BDDB4F5806F05D1FC
:1016500002460B46FEF782FD06460D4630462946F9
:10166000F8BD4FF0FF30A7F21347F8400642F5D01F
:101670000121C4F13304A1408A1928BF013322EAB1
:10168000000219461046E7E7FFFF0F00F8B500BF5C
:10169000F8BC08BC9E467047F8B500BFF8BC08BC53
:0416A0009E467047AB
:1016A40048656C6C6F20576F726C642100000000F9
:1016B4005768617420697320796F7572206E616D4B
:1016C400653F000048692C00506C656173652C20EF
:1016D40073656E6420636F6D6D616E64000000005D
:1016E400416374696F6E5B7475726E5F6F6E202FE9
:1016F400207475726E5F6F66665D204C65645B670F
:101704007265656E5F6C6564202F207265645F6C22
:1017140065645D007475726E5F6F6E2067726565D7
:101724006E5F6C65640000007475726E5F6F6E208E
:101734007265645F6C6564007475726E5F6F666673
:1017440020677265656E5F6C656400007475726E07
:101754005F6F6666207265645F6C656400000000FC
:10176400446F6E650000000057726F6E6720436F10
:101774006D6D616E6400000050617269747920457A
:0817840072726F720000000098
:04178C00350100081B
:04179000110100083B
:1017940000127A00000000000000000001020304AF
:0417A4000607080923
:040000050800124598
:00000001FF
