:020000040800F2
:100000000050002085110008DB110008E7110008EE
:10001000ED110008F3110008F911000800000000BC
:10002000000000000000000000000000FF110008B8
:100030000B1200080000000017120008251200082B
:10004000D9110008D9110008D9110008D9110008E8
:10005000D9110008D91100084112000879120008CE
:100060008512000891120008D9110008D911000862
:10007000D91100089D120008D9110008D9110008F3
:10008000D9110008D9110008D9110008D9110008A8
:10009000D9110008D9110008D9110008D911000898
:1000A000D9110008D9110008D9110008D911000888
:1000B000D9110008D9110008D9110008D911000878
:1000C000D9110008D9110008D9110008D911000868
:1000D000D9110008DD120008D9110008D911000853
:1000E000D9110008D9110008D9110008000000003A
:1000F0000000000000000000000000000000000000
:0C01000000000000000000005FF808F1A3
:10010C0010B5054C237833B9044B13B10448AFF345
:10011C0000800123237010BD14000020000000009B
:10012C00CC15000808B5034B1BB103490348AFF3CA
:10013C00008008BD0000000018000020CC1500084D
:10014C0081F0004102E000BF83F0004330B54FEA7C
:10015C0041044FEA430594EA050F08BF90EA020FE9
:10016C001FBF54EA000C55EA020C7FEA645C7FEA7C
:10017C00655C00F0E2804FEA5454D4EB5555B8BF9F
:10018C006D420CDD2C4480EA020281EA030382EA10
:10019C00000083EA010180EA020281EA0303362DA2
:1001AC0088BF30BD11F0004F4FEA01314FF4801C75
:1001BC004CEA113102D0404261EB410113F0004F87
:1001CC004FEA03334CEA133302D0524263EB43033E
:1001DC0094EA050F00F0A780A4F10104D5F1200EDC
:1001EC000DDB02FA0EFC22FA05F2801841F1000137
:1001FC0003FA0EF2801843FA05F359410EE0A5F10B
:10020C0020050EF1200E012A03FA0EFC28BF4CF03B
:10021C00020C43FA05F3C01851EBE37101F00045F1
:10022C0007D54FF0000EDCF1000C7EEB00006EEBFE
:10023C000101B1F5801F1BD3B1F5001F0CD3490888
:10024C005FEA30004FEA3C0C04F101044FEA4452DF
:10025C0012F5800F80F09A80BCF1004F08BF5FEA66
:10026C00500C50F1000041EB045141EA050130BD46
:10027C005FEA4C0C404141EB010111F4801FA4F1E9
:10028C000104E9D191F0000F04BF01460020B1FA3E
:10029C0081F308BF2033A3F10B03B3F120020CDA76
:1002AC000C3208DD02F1140CC2F10C0201FA0CF054
:1002BC0021FA02F10CE002F11402D8BFC2F1200CB9
:1002CC0001FA02F120FA0CFCDCBF41EA0C0190406F
:1002DC00E41AA2BF01EB0451294330BD6FEA0404B8
:1002EC001F3C1CDA0C340EDC04F11404C4F12002A3
:1002FC0020FA04F001FA02F340EA030021FA04F3B5
:10030C0045EA030130BDC4F10C04C4F1200220FA0B
:10031C0002F001FA04F340EA0300294630BD21FA49
:10032C0004F0294630BD94F0000F83F4801306BF0F
:10033C0081F480110134013D4EE77FEA645C18BF03
:10034C007FEA655C29D094EA050F08BF90EA020F9A
:10035C0005D054EA000C04BF1946104630BD91EA92
:10036C00030F1EBF0021002030BD5FEA545C05D195
:10037C004000494128BF41F0004130BD14F58004D4
:10038C003CBF01F5801130BD01F0004545F0FE4148
:10039C0041F470014FF0000030BD7FEA645C1ABF7D
:1003AC00194610467FEA655C1CBF0B46024650EAB4
:1003BC00013406BF52EA033591EA030F41F40021E0
:1003CC0030BD00BF90F0000F04BF0021704730B566
:1003DC004FF4806404F132044FF000054FF000013B
:1003EC0050E700BF90F0000F04BF0021704730B5FC
:1003FC004FF4806404F1320410F0004548BF4042D1
:10040C004FF000013EE700BF42004FEAE2014FEA25
:10041C0031014FEA02701FBF12F07F4393F07F4F00
:10042C0081F06051704792F0000F14BF93F07F4F32
:10043C00704730B54FF4607401F0004521F0004175
:10044C0020E700BF50EA010208BF704730B54FF0FB
:10045C0000050AE050EA010208BF704730B511F000
:10046C00004502D5404261EB41014FF4806404F138
:10047C0032045FEA915C3FF4DCAE4FF003025FEABA
:10048C00DC0C18BF03325FEADC0C18BF033202EB42
:10049C00DC02C2F1200300FA03FC20FA02F001FA9C
:1004AC0003FE40EA0E0021FA02F11444C1E600BF3B
:1004BC0070B54FF0FF0C4CF4E06C1CEA11541DBFEE
:1004CC001CEA135594EA0C0F95EA0C0F00F0DEF8B9
:1004DC002C4481EA030621EA4C5123EA4C5350EA9E
:1004EC00013518BF52EA033541F4801143F48013EF
:1004FC0038D0A0FB02CE4FF00005E1FB02E506F080
:10050C000042E0FB03E54FF00006E1FB03569CF0D4
:10051C00000F18BF4EF0010EA4F1FF04B6F5007FDA
:10052C0064F5407404D25FEA4E0E6D4146EB06064C
:10053C0042EAC62141EA55514FEAC52040EA5E50D5
:10054C004FEACE2EB4F1FD0C88BFBCF5E06F1ED87F
:10055C00BEF1004F08BF5FEA500E50F1000041EBB6
:10056C00045170BD06F0004646EA010140EA020063
:10057C0081EA0301B4EB5C04C2BFD4EB0C0541EA85
:10058C00045170BD41F480114FF0000E013C00F39A
:10059C00AB8014F1360FDEBF002001F0004170BDBE
:1005AC00C4F10004203C35DA0C341BDC04F11404D7
:1005BC00C4F1200500FA05F320FA04F001FA05F263
:1005CC0040EA020001F0004221F0004110EBD37030
:1005DC0021FA04F642EB06015EEA430E08BF20EA5C
:1005EC00D37070BDC4F10C04C4F1200500FA04F3FF
:1005FC0020FA05F001FA04F240EA020001F0004191
:10060C0010EBD37041F100015EEA430E08BF20EA03
:10061C00D37070BDC4F1200500FA05F24EEA020E4B
:10062C0020FA04F301FA05F243EA020321FA04F07A
:10063C0001F0004121FA04F220EA020000EBD37031
:10064C005EEA430E08BF20EAD37070BD94F0000F31
:10065C000FD101F00046400041EB010111F4801F65
:10066C0008BF013CF7D041EA060195F0000F18BF16
:10067C00704703F00046520043EB030313F4801F52
:10068C0008BF013DF7D043EA0603704794EA0C0F0C
:10069C000CEA135518BF95EA0C0F0CD050EA410622
:1006AC0018BF52EA4306D1D181EA030101F000419F
:1006BC004FF0000070BD50EA410606BF10461946C7
:1006CC0052EA430619D094EA0C0F02D150EA0136D3
:1006DC0013D195EA0C0F05D152EA03361CBF104614
:1006EC0019460AD181EA030101F0004141F0FE41B3
:1006FC0041F470014FF0000070BD41F0FE4141F437
:10070C00780170BD70B54FF0FF0C4CF4E06C1CEA36
:10071C0011541DBF1CEA135594EA0C0F95EA0C0FEB
:10072C0000F0A7F8A4EB050481EA030E52EA0335A6
:10073C004FEA013100F088804FEA03334FF08055C7
:10074C0045EA131343EA12634FEA022245EA1115F4
:10075C0045EA10654FEA00260EF000419D4208BFA5
:10076C00964244F1FD0404F5407402D25B084FEA52
:10077C003202B61A65EB03055B084FEA32024FF4FE
:10078C0080104FF4002CB6EB020E75EB030E22BF5B
:10079C00B61A754640EA0C005B084FEA3202B6EB1B
:1007AC00020E75EB030E22BFB61A754640EA5C00CA
:1007BC005B084FEA3202B6EB020E75EB030E22BF5A
:1007CC00B61A754640EA9C005B084FEA3202B6EB5B
:1007DC00020E75EB030E22BFB61A754640EADC001A
:1007EC0055EA060E18D04FEA051545EA16754FEA7C
:1007FC0006164FEAC30343EA52734FEAC2025FEA9A
:10080C001C1CC0D111F4801F0BD141EA00014FF028
:10081C0000004FF0004CB6E711F4801F04BF0143F9
:10082C000020B4F1FD0C88BFBCF5E06F3FF6AFAE15
:10083C00B5EB030C04BFB6EB020C5FEA500C50F1A5
:10084C00000041EB045170BD0EF0004E4EEA113128
:10085C0014EB5C04C2BFD4EB0C0541EA045170BD2F
:10086C0041F480114FF0000E013C90E645EA060E73
:10087C008DE60CEA135594EA0C0F08BF95EA0C0FA1
:10088C003FF43BAF94EA0C0F0AD150EA01347FF4E9
:10089C0034AF95EA0C0F7FF425AF104619462CE7C0
:1008AC0095EA0C0F06D152EA03353FF4FDAE104623
:1008BC00194622E750EA410618BF52EA43067FF474
:1008CC00C5AE50EA41047FF40DAF52EA43057FF404
:1008DC00EBAE12E74A0011D212F5001211D20DD56F
:1008EC006FF47873B3EB62520ED44FEAC12343F02A
:1008FC00004343EA505323FA02F070474FF00000D4
:10090C00704750EA013002D14FF0FF3070474FF082
:10091C000000704780B483B000AF03463960FB71B0
:10092C0097F90730002B0BDA0D49FB7903F00F0315
:10093C00043B3A68D2B21201D2B20B441A7609E0E7
:10094C00084997F907303A68D2B21201D2B20B4477
:10095C0083F8002300BF0C37BD4680BC704700BF36
:10096C0000ED00E000E100E080B582B000AF7860FF
:10097C007B68B3F1807F01D3012311E00A4A7B68C5
:10098C0023F07F43013B53600F214FF0FF30FFF703
:10099C00C1FF054B00229A60034B07221A6000230B
:1009AC0018460837BD4680BD10E000E080B485B025
:1009BC0000AF7860074B1B68FB6000BF054B1A68E3
:1009CC00FB68D21A7B689A42F8D300BF1437BD4635
:1009DC0080BC70473000002080B582B000AF00F0C2
:1009EC00B1FC0E4B1B680E4A934200D0FEE70B4B3A
:1009FC001B680C4AA2FB03239B091846FFF7B4FFA4
:100A0C0078607B68002B00D0FEE700214FF0FF30B0
:100A1C00FFF780FF00BF0837BD4680BD00000020F7
:100A2C0000127A00D34D621080B400AF104A104B04
:100A3C009B6943F0100393610E4A0E4B5B6823F4E1
:100A4C00401353600B4A0B4B5B6843F40013536029
:100A5C00084A084B5B6823F440035360054A054B76
:100A6C00DB6843F40053D36000BFBD4680BC7047C5
:100A7C00001002400010014080B485B000AF7860D7
:100A8C007B6803F00703FB600C4BDB68BB60BA6848
:100A9C004FF6FF031340BB60FB681A02BB6813439D
:100AAC0043F0BF6343F40033BB60044ABB68D360BC
:100ABC0000BF1437BD4680BC704700BF00ED00E09E
:100ACC0080B483B000AF0346FB71084997F9073037
:100ADC005B09FA7902F01F02012000FA02F241F8D8
:100AEC00232000BF0C37BD4680BC704700E100E0FE
:100AFC0080B483B000AF03463960FB7197F90730BF
:100B0C00002B0BDA0D49FB7903F00F03043B3A6819
:100B1C00D2B21201D2B20B441A7609E0084997F905
:100B2C0007303A68D2B21201D2B20B4483F80023D8
:100B3C0000BF0C37BD4680BC704700BF00ED00E025
:100B4C0000E100E080B500AF0320FFF795FF012125
:100B5C000620FFF7CDFF02210D20FFF7C9FF012171
:100B6C002520FFF7C5FF0620FFF7AAFF0D20FFF792
:100B7C00A7FF2520FFF7A4FF00BF80BD80B487B07E
:100B8C0000AFF860B9601346FB710123FB75FB687D
:100B9C00002B18D0BB68002B15D000233B610EE056
:100BAC003B69FA6813441A783B69B9680B441B78A3
:100BBC009A4201D00023FB753B6901333B61FA7902
:100BCC003B699A42ECDCFB7D18461C37BD4680BC69
:100BDC007047000080B400AF134B1B889BB203F02E
:100BEC000103012B0CD100BF0F4B1B889BB203F0F0
:100BFC002003202BF8D10C4B9B880C4B02221A7033
:100C0C00094B1B889BB203F02003202B08D1064B09
:100C1C009B889BB2DAB2064B1A70044B01221A70F5
:100C2C0000BFBD4680BC7047003801403500002035
:100C3C003600002080B483B000AF214B1B78002B12
:100C4C0027D1204B1B68002B35D000237B600BE099
:100C5C001D4A7B68134419781C4A7B6813440A4666
:100C6C001A707B6801337B60164B1B687A689A425A
:100C7C00EEDB144B1B68154A0021D154114B1B6839
:100C8C00DBB20133DAB2124B1A700E4B00221A602F
:100C9C0011E00C4B1B68C82B02D10A4B00221A60C6
:100CAC00084B1B68064A1178074AD154054B1B6840
:100CBC000133044A136000BF0C37BD4680BC70473B
:100CCC00360000200401002008010020380000201C
:100CDC000101002080B485B000AF78600B46FB703A
:100CEC007B68002B18D00023FB6011E000BF0D4B7C
:100CFC001B889BB203F08003002BF8D00949FB68DA
:100D0C007A6813441B789BB28B80FB680133FB60C1
:100D1C00FA78FB689A42E9DC00BF1437BD4680BC08
:100D2C00704700BF0038014080B400AF194A194B1E
:100D3C009B6943F004039361174A174B5B6823F0DC
:100D4C0030035360144A144B5B6843F02003536028
:100D5C00114A114B5B6823F0C00353600E4A0E4BD3
:100D6C005B6843F0800353600B4A0B4B5B6823F4C6
:100D7C0040635360084A084B5B6843F480635360DC
:100D8C00054A054B5B6823F44073536000BFBD46B6
:100D9C0080BC70470010024000080140B0B586B01E
:100DAC0000AF786039604FF000034FF00004C7E9E2
:100DBC0004343868FFF706FB04460D467868FFF7E5
:100DCC0001FB4FF000022A4BFFF772FB02460B4669
:100DDC0020462946FFF796FC03460C46C7E9043427
:100DEC00D7E90401FFF776FD03469BB21846FFF7DF
:100DFC00F9FA03460C461A462346D7E90401FFF7D5
:100E0C00A3F903460C46184621464FF00002184B36
:100E1C00FFF74EFB03460C461846214600F08AFBB2
:100E2C0003460C4618462146FFF754FD0346FB7358
:100E3C00FB7B0F2B0CD90023FB734FF000020D4BE7
:100E4C00D7E90401FFF782F903460C46C7E90434DD
:100E5C00D7E90401FFF73EFD03469BB21B019AB292
:100E6C00FB7B9BB213449BB218461837BD46B0BDF2
:100E7C00000030400000F03F80B582B000AF034668
:100E8C00FB80FFF751FF184A174B9B6943F48043D3
:100E9C009361164A154B9B899BB243F480539BB2CA
:100EAC009381124A114B1B8A9BB223F440539BB281
:100EBC0013820E4A0D4B9B899BB243F400739BB279
:100ECC0093810A4A094B9B899BB243F480639BB282
:100EDC009381064AFB88138100BF00BF00BF00BF8F
:100EEC0000BF0837BD4680BD0010024000380140ED
:100EFC0080B483B000AF78607B689B899BB243F46D
:100F0C0000539AB27B689A817B689B899BB243F0B1
:100F1C0008039AB27B689A817B689B899BB243F0E9
:100F2C0004039AB27B689A817B689B899BB243F0DD
:100F3C0020039AB27B689A817B689B899BB243F4AD
:100F4C0080739AB27B689A8100BF0C37BD4680BC17
:100F5C007047000080B582B000AF694B1B78012B45
:100F6C000FD0022B02D0002B11D011E00D216548BF
:100F7C00FFF7B0FE644B00221A70614B00221A700E
:100F8C0006E0FFF757FE5E4B00221A7000E000BF30
:100F9C005D4B1B78042B00F2A88001A252F823F0C1
:100FAC00C10F0008D10F0008E90F0008F90F000865
:100FBC00331000080D215548FFF78CFE524B0122CF
:100FCC001A7099E0524B1B78002B00F09080504B1C
:100FDC0000221A704C4B02221A7088E013214D48E3
:100FEC00FFF778FE484B03221A7085E0484B1B78BC
:100FFC00002B7ED004214848FFF76CFE444B1B7835
:10100C0019464648FFF766FE15214548FFF762FE74
:10101C0034214448FFF75EFE3D4B00221A703A4BD8
:10102C0004221A7065E03A4B1B78002B63D0384BC6
:10103C0000221A7000233B710023FB710023BB714B
:10104C0000237B71122235493748FFF797FD034681
:10105C003B713B79012B04D105213448FFF73AFE53
:10106C0006E010222D493248FFF788FD0346FB713C
:10107C00FB79012B04D105212C48FFF72BFE09E04D
:10108C003B79002B06D1132224492A48FFF776FD21
:10109C000346BB71BB79012B04D105212348FFF713
:1010AC0019FE0CE0FB79002B09D13B79002B06D102
:1010BC0011221A492048FFF761FD03467B717B79A9
:1010CC00012B04D105211948FFF704FE13E0BB796D
:1010DC00002B10D1FB79002B0DD13B79002B0AD1C1
:1010EC000E211648FFF7F6FD05E000BF04E000BF37
:1010FC0002E000BF00E000BF00BF0837BD4680BD66
:10110C0035000020BC16000834000020E41500084F
:10111C0001010020F4150008081600083800002012
:10112C000C1600082416000858160008A41600080F
:10113C006C1600087C16000890160008AC16000807
:10114C0080B500AFFFF748FCFFF76EFCFFF7FAFC29
:10115C0007494FF4E130FFF721FE03461846FFF72D
:10116C008BFE62B60348FFF7C3FEFFF7F3FEFCE706
:10117C0000127A0000380140DFF838D072B6002136
:10118C0003E00D4B5B58435004310C480C4B421898
:10119C009A42F6D30B4A02E0002342F8043B0A4B76
:1011AC009A42F9D300F09AF800F0A0F9FFF7C8FFC3
:1011BC007047000000500020D416000800000020EA
:1011CC001400002014000020D0010020FEE780B4A1
:1011DC0000AF00BFBD4680BC704780B400AFFEE7D7
:1011EC0080B400AFFEE780B400AFFEE780B400AF80
:1011FC00FEE780B400AF00BFBD4680BC704780B432
:10120C0000AF00BFBD4680BC704780B400AF00BFCC
:10121C00BD4680BC7047000080B400AF044B1B6817
:10122C000133034A136000BFBD4680BC704700BF4A
:10123C003000002080B500AF0A4B00221A604FF43A
:10124C007A70FFF7B3FB074B01221A604FF47A70E8
:10125C00FFF7ACFB044A044B5B6943F00103536199
:10126C0000BF80BDB40122420004014080B400AF35
:10127C0000BFBD4680BC704780B400AF00BFBD4608
:10128C0080BC704780B400AF00BFBD4680BC7047C7
:10129C0080B400AF0C4B1B6803F40073B3F5007FF4
:1012AC0008D10A4B01221A60074A074B5B6843F4CA
:1012BC0000735360044A044B5B6843F480735360BF
:1012CC0000BFBD4680BC704700000240B401224202
:1012DC0080B500AFFFF77EFC00BF80BD80B500AFCE
:1012EC00154A154B1B6843F0010313601249124B4E
:1012FC005A68124B13404B600F4A0F4B1B6823F07C
:10130C00847323F4803313600B4A0B4B1B6823F458
:10131C0080231360084A084B5B6823F4FE03536078
:10132C00054B4FF41F029A6000F078F8044B4FF015
:10133C0000629A6000BF80BD001002400000FFF800
:10134C0000ED00E080B485B000AF0023FB6000230B
:10135C00BB6000237B602C4B5B6803F00C03FB60D1
:10136C00FB68042B07D0082B09D0002B33D1274B5B
:10137C00274A1A6033E0254B254A1A602FE0224B8E
:10138C005B6803F47013BB601F4B5B6803F4803322
:10139C007B60BB689B0C0233BB607B68002B06D167
:1013AC00BB681C4A02FB03F3184A136017E0164B88
:1013BC005B6803F40033002B06D0BB68154A02FBB4
:1013CC0003F3124A13600AE0BB68114A02FB03F3F1
:1013DC000E4A136003E00D4B0D4A1A6000BF0A4B16
:1013EC005B681B0903F00F030B4AD35CDBB2FB6099
:1013FC00064B1A68FB6822FA03F3044A136000BF19
:10140C001437BD4680BC704700100240000000201D
:10141C0000127A0000093D000400002080B500AFE6
:10142C0000F002F800BF80BD80B483B000AF002391
:10143C007B6000233B602B4A2A4B1B6843F48033B0
:10144C001360284B1B6803F400333B607B6801334B
:10145C007B603B68002B03D17B68B3F5A06FF0D1A8
:10146C00204B1B6803F40033002B02D001233B609C
:10147C0001E000233B603B68012B2ED11A4A1A4B2A
:10148C001B6843F010031360174A174B1B6823F0BB
:10149C0003031360144A144B1B681360114A114B5D
:1014AC005B6853600F4A0F4B5B6853600D4A0D4BE2
:1014BC005B6853600B4A0B4B5B6823F00303536070
:1014CC00084A084B5B6843F00103536000BF054BAF
:1014DC005B6803F00C03042BF9D100BF0C37BD463D
:1014EC0080BC7047001002400020024070B50025FF
:1014FC000C4E0D4CA41BA410A54209D100F060F8B1
:10150C0000250A4E0A4CA41BA410A54205D170BD9F
:10151C0056F8253098470135EEE756F825309847B0
:10152C000135F2E7CC160008CC160008CC160008E2
:10153C00D0160008F8B5C1F30A57A7F2FF34132CE4
:10154C0006460D460B468E4617DC002C09DA013494
:10155C0001F0004303D143F07F5343F440130022C6
:10156C0029E0164921410D4200D188B14FF40023E6
:10157C002341734423EA0103F1E7332C0BDDB4F56B
:10158C00806F05D102460B46FEF7E0FD06460D4680
:10159C0030462946F8BD4FF0FF30A7F21347F8400C
:1015AC000642F5D00121C4F13304A1408A1928BFA9
:1015BC00013322EA000219461046E7E7FFFF0F004D
:1015CC00F8B500BFF8BC08BC9E467047F8B500BF24
:0815DC00F8BC08BC9E467047F4
:1015E40048656C6C6F20576F726C642100000000BA
:1015F4005768617420697320796F7572206E616D0C
:10160400653F000048692C00506C656173652C20AF
:1016140073656E6420636F6D6D616E64000000001D
:10162400416374696F6E5B7475726E5F6F6E202FA9
:10163400207475726E5F6F66665D204C65645B67CF
:101644007265656E5F6C6564202F207265645F6CE3
:1016540065645D007475726E5F6F6E206772656598
:101664006E5F6C65640000007475726E5F6F6E204F
:101674007265645F6C6564007475726E5F6F666634
:1016840020677265656E5F6C656400007475726EC8
:101694005F6F6666207265645F6C656400000000BD
:1016A400446F6E650000000057726F6E6720436FD1
:1016B4006D6D616E6400000050617269747920453B
:0816C40072726F720000000059
:0416CC0031010008E0
:0416D0000D01000800
:1016D40000127A0000000000000000000102030470
:0416E40006070809E4
:040000050800118559
:00000001FF
